{
  "contractName": "SearchContract",
  "abi": [
    {
      "constant": true,
      "inputs": [
        {
          "name": "",
          "type": "bytes32"
        }
      ],
      "name": "idcontracts",
      "outputs": [
        {
          "name": "",
          "type": "address"
        }
      ],
      "payable": false,
      "stateMutability": "view",
      "type": "function"
    },
    {
      "constant": false,
      "inputs": [
        {
          "name": "_id",
          "type": "bytes32"
        }
      ],
      "name": "setLink",
      "outputs": [],
      "payable": false,
      "stateMutability": "nonpayable",
      "type": "function"
    },
    {
      "constant": false,
      "inputs": [
        {
          "name": "_id",
          "type": "bytes32"
        }
      ],
      "name": "deleteLink",
      "outputs": [],
      "payable": false,
      "stateMutability": "nonpayable",
      "type": "function"
    }
  ],
  "bytecode": "0x608060405234801561001057600080fd5b506102bb806100206000396000f300608060405260043610610057576000357c0100000000000000000000000000000000000000000000000000000000900463ffffffff1680637d821bb21461005c5780638464045f146100cd578063bac2ed7e146100fe575b600080fd5b34801561006857600080fd5b5061008b600480360381019080803560001916906020019092919050505061012f565b604051808273ffffffffffffffffffffffffffffffffffffffff1673ffffffffffffffffffffffffffffffffffffffff16815260200191505060405180910390f35b3480156100d957600080fd5b506100fc6004803603810190808035600019169060200190929190505050610162565b005b34801561010a57600080fd5b5061012d6004803603810190808035600019169060200190929190505050610233565b005b60006020528060005260406000206000915054906101000a900473ffffffffffffffffffffffffffffffffffffffff1681565b3373ffffffffffffffffffffffffffffffffffffffff16600080836000191660001916815260200190815260200160002060009054906101000a900473ffffffffffffffffffffffffffffffffffffffff1673ffffffffffffffffffffffffffffffffffffffff161415156101d657600080fd5b6000806000836000191660001916815260200190815260200160002060006101000a81548173ffffffffffffffffffffffffffffffffffffffff021916908373ffffffffffffffffffffffffffffffffffffffff16021790555050565b33600080836000191660001916815260200190815260200160002060006101000a81548173ffffffffffffffffffffffffffffffffffffffff021916908373ffffffffffffffffffffffffffffffffffffffff160217905550505600a165627a7a72305820eb9e261cf7bc983d254ec0b584bd52aeb1c454a0932acc5b8b18700ff614b1440029",
  "source": "pragma solidity ^0.4.20;\n\ncontract SearchContract {\n\n    mapping (bytes32 => address) public idcontracts;\n\n    function setLink(bytes32 _id) external {\n        idcontracts[_id] = msg.sender;\n    }\n\n    function deleteLink(bytes32 _id) external {\n        require (idcontracts[_id] == msg.sender);\n        idcontracts[_id] = 0x0;\n    }\n} ",
  "sourcePath": "/home/sabine/git/id_contracts/contracts/SearchContract.sol",
  "compiler": {
    "name": "solc",
    "version": "0.4.24+commit.e67f0147.Emscripten.clang"
  },
  "schemaVersion": "2.0.0",
  "updatedAt": "2018-07-12T19:19:35.885Z"
}